{
  "address": "0xe7f1725E7734CE288F8367e1Bb143E90bb3F0512",
  "abi": [
    {
      "inputs": [
        {
          "internalType": "address",
          "name": "priceFeedAddress",
          "type": "address"
        }
      ],
      "stateMutability": "nonpayable",
      "type": "constructor"
    },
    {
      "inputs": [],
      "name": "FundMe__NotOwner",
      "type": "error"
    },
    {
      "stateMutability": "payable",
      "type": "fallback"
    },
    {
      "inputs": [],
      "name": "MINIMUM_USD",
      "outputs": [
        {
          "internalType": "uint256",
          "name": "",
          "type": "uint256"
        }
      ],
      "stateMutability": "view",
      "type": "function"
    },
    {
      "inputs": [],
      "name": "cheaperWithdraw",
      "outputs": [],
      "stateMutability": "payable",
      "type": "function"
    },
    {
      "inputs": [],
      "name": "fund",
      "outputs": [],
      "stateMutability": "payable",
      "type": "function"
    },
    {
      "inputs": [],
      "name": "getVersion",
      "outputs": [
        {
          "internalType": "uint256",
          "name": "",
          "type": "uint256"
        }
      ],
      "stateMutability": "view",
      "type": "function"
    },
    {
      "inputs": [],
      "name": "i_owner",
      "outputs": [
        {
          "internalType": "address",
          "name": "",
          "type": "address"
        }
      ],
      "stateMutability": "view",
      "type": "function"
    },
    {
      "inputs": [
        {
          "internalType": "address",
          "name": "",
          "type": "address"
        }
      ],
      "name": "s_addressToAmountFunded",
      "outputs": [
        {
          "internalType": "uint256",
          "name": "",
          "type": "uint256"
        }
      ],
      "stateMutability": "view",
      "type": "function"
    },
    {
      "inputs": [
        {
          "internalType": "uint256",
          "name": "",
          "type": "uint256"
        }
      ],
      "name": "s_funders",
      "outputs": [
        {
          "internalType": "address",
          "name": "",
          "type": "address"
        }
      ],
      "stateMutability": "view",
      "type": "function"
    },
    {
      "inputs": [],
      "name": "s_priceFeed",
      "outputs": [
        {
          "internalType": "contract AggregatorV3Interface",
          "name": "",
          "type": "address"
        }
      ],
      "stateMutability": "view",
      "type": "function"
    },
    {
      "inputs": [],
      "name": "withdraw",
      "outputs": [],
      "stateMutability": "payable",
      "type": "function"
    },
    {
      "stateMutability": "payable",
      "type": "receive"
    }
  ],
  "transactionHash": "0xbeb60738567600bd4c2376c74df7b3e6fdb0a8d76ea25185ccb33843922ea812",
  "args": [
    "0x5FbDB2315678afecb367f032d93F642f64180aa3"
  ],
  "numDeployments": 1,
  "solcInputHash": "84fbc4cee84e0e38287feffb55de9e1a",
  "bytecode": "0x60a06040523480156200001157600080fd5b50604051620015d4380380620015d4833981810160405281019062000037919062000120565b3373ffffffffffffffffffffffffffffffffffffffff1660808173ffffffffffffffffffffffffffffffffffffffff1660601b8152505080600160006101000a81548173ffffffffffffffffffffffffffffffffffffffff021916908373ffffffffffffffffffffffffffffffffffffffff1602179055505062000152565b600080fd5b600073ffffffffffffffffffffffffffffffffffffffff82169050919050565b6000620000e882620000bb565b9050919050565b620000fa81620000db565b81146200010657600080fd5b50565b6000815190506200011a81620000ef565b92915050565b600060208284031215620001395762000138620000b6565b5b6000620001498482850162000109565b91505092915050565b60805160601c61144e62000186600039600081816104000152818161068c015281816108820152610950015261144e6000f3fe60806040526004361061008a5760003560e01c806354861af71161005957806354861af7146101405780636b69a5921461017d578063b60d4288146101a8578063be2693f0146101b2578063dba6335f146101bc57610099565b80630d8e6e2c146100a35780630ec3b027146100ce5780631bf6132d146100f95780633ccfd60b1461013657610099565b36610099576100976101e7565b005b6100a16101e7565b005b3480156100af57600080fd5b506100b8610319565b6040516100c59190610c57565b60405180910390f35b3480156100da57600080fd5b506100e36103c0565b6040516100f09190610cf1565b60405180910390f35b34801561010557600080fd5b50610120600480360381019061011b9190610d4f565b6103e6565b60405161012d9190610c57565b60405180910390f35b61013e6103fe565b005b34801561014c57600080fd5b5061016760048036038101906101629190610da8565b61063e565b6040516101749190610de4565b60405180910390f35b34801561018957600080fd5b5061019261067d565b60405161019f9190610c57565b60405180910390f35b6101b06101e7565b005b6101ba61068a565b005b3480156101c857600080fd5b506101d161094e565b6040516101de9190610de4565b60405180910390f35b6802b5e3af16b188000061021d34600160009054906101000a900473ffffffffffffffffffffffffffffffffffffffff16610972565b101561025e576040517f08c379a000000000000000000000000000000000000000000000000000000000815260040161025590610e5c565b60405180910390fd5b34600260003373ffffffffffffffffffffffffffffffffffffffff1673ffffffffffffffffffffffffffffffffffffffff16815260200190815260200160002060008282546102ad9190610eab565b925050819055506000339080600181540180825580915050600190039060005260206000200160009091909190916101000a81548173ffffffffffffffffffffffffffffffffffffffff021916908373ffffffffffffffffffffffffffffffffffffffff160217905550565b6000600160009054906101000a900473ffffffffffffffffffffffffffffffffffffffff1673ffffffffffffffffffffffffffffffffffffffff166354fd4d506040518163ffffffff1660e01b815260040160206040518083038186803b15801561038357600080fd5b505afa158015610397573d6000803e3d6000fd5b505050506040513d601f19601f820116820180604052508101906103bb9190610f16565b905090565b600160009054906101000a900473ffffffffffffffffffffffffffffffffffffffff1681565b60026020528060005260406000206000915090505481565b7f000000000000000000000000000000000000000000000000000000000000000073ffffffffffffffffffffffffffffffffffffffff163373ffffffffffffffffffffffffffffffffffffffff1614610483576040517f579610db00000000000000000000000000000000000000000000000000000000815260040160405180910390fd5b60005b60008054905081101561052e5760008082815481106104a8576104a7610f43565b5b9060005260206000200160009054906101000a900473ffffffffffffffffffffffffffffffffffffffff1690506000600260008373ffffffffffffffffffffffffffffffffffffffff1673ffffffffffffffffffffffffffffffffffffffff1681526020019081526020016000208190555050808061052690610f72565b915050610486565b50600067ffffffffffffffff81111561054a57610549610fbb565b5b6040519080825280602002602001820160405280156105785781602001602082028036833780820191505090505b506000908051906020019061058e929190610b97565b5060003373ffffffffffffffffffffffffffffffffffffffff16476040516105b59061101b565b60006040518083038185875af1925050503d80600081146105f2576040519150601f19603f3d011682016040523d82523d6000602084013e6105f7565b606091505b505090508061063b576040517f08c379a00000000000000000000000000000000000000000000000000000000081526004016106329061107c565b60405180910390fd5b50565b6000818154811061064e57600080fd5b906000526020600020016000915054906101000a900473ffffffffffffffffffffffffffffffffffffffff1681565b6802b5e3af16b188000081565b7f000000000000000000000000000000000000000000000000000000000000000073ffffffffffffffffffffffffffffffffffffffff163373ffffffffffffffffffffffffffffffffffffffff161461070f576040517f579610db00000000000000000000000000000000000000000000000000000000815260040160405180910390fd5b60008080548060200260200160405190810160405280929190818152602001828054801561079257602002820191906000526020600020905b8160009054906101000a900473ffffffffffffffffffffffffffffffffffffffff1673ffffffffffffffffffffffffffffffffffffffff1681526020019060010190808311610748575b5050505050905060005b815181101561081d5760008282815181106107ba576107b9610f43565b5b602002602001015190506000600260008373ffffffffffffffffffffffffffffffffffffffff1673ffffffffffffffffffffffffffffffffffffffff1681526020019081526020016000208190555050808061081590610f72565b91505061079c565b50600067ffffffffffffffff81111561083957610838610fbb565b5b6040519080825280602002602001820160405280156108675781602001602082028036833780820191505090505b506000908051906020019061087d929190610b97565b5060007f000000000000000000000000000000000000000000000000000000000000000073ffffffffffffffffffffffffffffffffffffffff16476040516108c49061101b565b60006040518083038185875af1925050503d8060008114610901576040519150601f19603f3d011682016040523d82523d6000602084013e610906565b606091505b505090508061094a576040517f08c379a00000000000000000000000000000000000000000000000000000000081526004016109419061107c565b60405180910390fd5b5050565b7f000000000000000000000000000000000000000000000000000000000000000081565b60008061097e83610a2c565b90506109bf6040518060400160405280600a81526020017f65746850726963653a200000000000000000000000000000000000000000000081525082610ad2565b6000670de0b6b3a764000085836109d6919061109c565b6109e09190611125565b9050610a216040518060400160405280601081526020017f657468416d6f756e74496e5573643a200000000000000000000000000000000081525082610ad2565b809250505092915050565b60008082905060008173ffffffffffffffffffffffffffffffffffffffff1663feaf968c6040518163ffffffff1660e01b815260040160a06040518083038186803b158015610a7a57600080fd5b505afa158015610a8e573d6000803e3d6000fd5b505050506040513d601f19601f82011682018060405250810190610ab291906111ce565b5050509150506402540be40081610ac99190611249565b92505050919050565b610b6a8282604051602401610ae89291906113e8565b6040516020818303038152906040527f9710a9d0000000000000000000000000000000000000000000000000000000007bffffffffffffffffffffffffffffffffffffffffffffffffffffffff19166020820180517bffffffffffffffffffffffffffffffffffffffffffffffffffffffff8381831617835250505050610b6e565b5050565b60008151905060006a636f6e736f6c652e6c6f679050602083016000808483855afa5050505050565b828054828255906000526020600020908101928215610c10579160200282015b82811115610c0f5782518260006101000a81548173ffffffffffffffffffffffffffffffffffffffff021916908373ffffffffffffffffffffffffffffffffffffffff16021790555091602001919060010190610bb7565b5b509050610c1d9190610c21565b5090565b5b80821115610c3a576000816000905550600101610c22565b5090565b6000819050919050565b610c5181610c3e565b82525050565b6000602082019050610c6c6000830184610c48565b92915050565b600073ffffffffffffffffffffffffffffffffffffffff82169050919050565b6000819050919050565b6000610cb7610cb2610cad84610c72565b610c92565b610c72565b9050919050565b6000610cc982610c9c565b9050919050565b6000610cdb82610cbe565b9050919050565b610ceb81610cd0565b82525050565b6000602082019050610d066000830184610ce2565b92915050565b600080fd5b6000610d1c82610c72565b9050919050565b610d2c81610d11565b8114610d3757600080fd5b50565b600081359050610d4981610d23565b92915050565b600060208284031215610d6557610d64610d0c565b5b6000610d7384828501610d3a565b91505092915050565b610d8581610c3e565b8114610d9057600080fd5b50565b600081359050610da281610d7c565b92915050565b600060208284031215610dbe57610dbd610d0c565b5b6000610dcc84828501610d93565b91505092915050565b610dde81610d11565b82525050565b6000602082019050610df96000830184610dd5565b92915050565b600082825260208201905092915050565b7f596f75206e65656420746f207370656e64206d6f726520455448210000000000600082015250565b6000610e46601b83610dff565b9150610e5182610e10565b602082019050919050565b60006020820190508181036000830152610e7581610e39565b9050919050565b7f4e487b7100000000000000000000000000000000000000000000000000000000600052601160045260246000fd5b6000610eb682610c3e565b9150610ec183610c3e565b9250827fffffffffffffffffffffffffffffffffffffffffffffffffffffffffffffffff03821115610ef657610ef5610e7c565b5b828201905092915050565b600081519050610f1081610d7c565b92915050565b600060208284031215610f2c57610f2b610d0c565b5b6000610f3a84828501610f01565b91505092915050565b7f4e487b7100000000000000000000000000000000000000000000000000000000600052603260045260246000fd5b6000610f7d82610c3e565b91507fffffffffffffffffffffffffffffffffffffffffffffffffffffffffffffffff821415610fb057610faf610e7c565b5b600182019050919050565b7f4e487b7100000000000000000000000000000000000000000000000000000000600052604160045260246000fd5b600081905092915050565b50565b6000611005600083610fea565b915061101082610ff5565b600082019050919050565b600061102682610ff8565b9150819050919050565b7f43616c6c206661696c6564000000000000000000000000000000000000000000600082015250565b6000611066600b83610dff565b915061107182611030565b602082019050919050565b6000602082019050818103600083015261109581611059565b9050919050565b60006110a782610c3e565b91506110b283610c3e565b9250817fffffffffffffffffffffffffffffffffffffffffffffffffffffffffffffffff04831182151516156110eb576110ea610e7c565b5b828202905092915050565b7f4e487b7100000000000000000000000000000000000000000000000000000000600052601260045260246000fd5b600061113082610c3e565b915061113b83610c3e565b92508261114b5761114a6110f6565b5b828204905092915050565b600069ffffffffffffffffffff82169050919050565b61117581611156565b811461118057600080fd5b50565b6000815190506111928161116c565b92915050565b6000819050919050565b6111ab81611198565b81146111b657600080fd5b50565b6000815190506111c8816111a2565b92915050565b600080600080600060a086880312156111ea576111e9610d0c565b5b60006111f888828901611183565b9550506020611209888289016111b9565b945050604061121a88828901610f01565b935050606061122b88828901610f01565b925050608061123c88828901611183565b9150509295509295909350565b600061125482611198565b915061125f83611198565b9250827f7fffffffffffffffffffffffffffffffffffffffffffffffffffffffffffffff048211600084136000841316161561129e5761129d610e7c565b5b817f800000000000000000000000000000000000000000000000000000000000000005831260008412600084131616156112db576112da610e7c565b5b827f8000000000000000000000000000000000000000000000000000000000000000058212600084136000841216161561131857611317610e7c565b5b827f7fffffffffffffffffffffffffffffffffffffffffffffffffffffffffffffff058212600084126000841216161561135557611354610e7c565b5b828202905092915050565b600081519050919050565b60005b8381101561138957808201518184015260208101905061136e565b83811115611398576000848401525b50505050565b6000601f19601f8301169050919050565b60006113ba82611360565b6113c48185610dff565b93506113d481856020860161136b565b6113dd8161139e565b840191505092915050565b6000604082019050818103600083015261140281856113af565b90506114116020830184610c48565b939250505056fea2646970667358221220612e60f7468ecdfbf5020c204edbe467391e9be4abb0879b10efffe3d4a51bc564736f6c63430008080033",
  "devdoc": {
    "author": "Bui Nam",
    "details": "This implements price feeds as our library",
    "kind": "dev",
    "methods": {},
    "title": "A sample Funding Contract",
    "version": 1
  },
  "userdoc": {
    "kind": "user",
    "methods": {
      "fund()": {
        "notice": "Funds our contract based on the ETH/USD price"
      }
    },
    "notice": "This contract is for creating a sample funding contract",
    "version": 1
  },
  "storageLayout": {
    "storage": [
      {
        "astId": 55,
        "contract": "contracts/FundMe.sol:FundMe",
        "label": "s_funders",
        "offset": 0,
        "slot": "0",
        "type": "t_array(t_address)dyn_storage"
      },
      {
        "astId": 67,
        "contract": "contracts/FundMe.sol:FundMe",
        "label": "s_priceFeed",
        "offset": 0,
        "slot": "1",
        "type": "t_contract(AggregatorV3Interface)45"
      },
      {
        "astId": 71,
        "contract": "contracts/FundMe.sol:FundMe",
        "label": "s_addressToAmountFunded",
        "offset": 0,
        "slot": "2",
        "type": "t_mapping(t_address,t_uint256)"
      }
    ],
    "types": {
      "t_address": {
        "encoding": "inplace",
        "label": "address",
        "numberOfBytes": "20"
      },
      "t_array(t_address)dyn_storage": {
        "base": "t_address",
        "encoding": "dynamic_array",
        "label": "address[]",
        "numberOfBytes": "32"
      },
      "t_contract(AggregatorV3Interface)45": {
        "encoding": "inplace",
        "label": "contract AggregatorV3Interface",
        "numberOfBytes": "20"
      },
      "t_mapping(t_address,t_uint256)": {
        "encoding": "mapping",
        "key": "t_address",
        "label": "mapping(address => uint256)",
        "numberOfBytes": "32",
        "value": "t_uint256"
      },
      "t_uint256": {
        "encoding": "inplace",
        "label": "uint256",
        "numberOfBytes": "32"
      }
    }
  }
}