{
  "address": "0xe7f1725E7734CE288F8367e1Bb143E90bb3F0512",
  "abi": [
    {
      "inputs": [
        {
          "internalType": "address",
          "name": "priceFeedAddress",
          "type": "address"
        }
      ],
      "stateMutability": "nonpayable",
      "type": "constructor"
    },
    {
      "inputs": [],
      "name": "NotOwner",
      "type": "error"
    },
    {
      "stateMutability": "payable",
      "type": "fallback"
    },
    {
      "inputs": [],
      "name": "MINIMUM_USD",
      "outputs": [
        {
          "internalType": "uint256",
          "name": "",
          "type": "uint256"
        }
      ],
      "stateMutability": "view",
      "type": "function"
    },
    {
      "inputs": [
        {
          "internalType": "address",
          "name": "",
          "type": "address"
        }
      ],
      "name": "addressToAmountFunded",
      "outputs": [
        {
          "internalType": "uint256",
          "name": "",
          "type": "uint256"
        }
      ],
      "stateMutability": "view",
      "type": "function"
    },
    {
      "inputs": [],
      "name": "fund",
      "outputs": [],
      "stateMutability": "payable",
      "type": "function"
    },
    {
      "inputs": [
        {
          "internalType": "uint256",
          "name": "",
          "type": "uint256"
        }
      ],
      "name": "funders",
      "outputs": [
        {
          "internalType": "address",
          "name": "",
          "type": "address"
        }
      ],
      "stateMutability": "view",
      "type": "function"
    },
    {
      "inputs": [],
      "name": "getVersion",
      "outputs": [
        {
          "internalType": "uint256",
          "name": "",
          "type": "uint256"
        }
      ],
      "stateMutability": "view",
      "type": "function"
    },
    {
      "inputs": [],
      "name": "i_owner",
      "outputs": [
        {
          "internalType": "address",
          "name": "",
          "type": "address"
        }
      ],
      "stateMutability": "view",
      "type": "function"
    },
    {
      "inputs": [],
      "name": "i_priceFeed",
      "outputs": [
        {
          "internalType": "contract AggregatorV3Interface",
          "name": "",
          "type": "address"
        }
      ],
      "stateMutability": "view",
      "type": "function"
    },
    {
      "inputs": [],
      "name": "withdraw",
      "outputs": [],
      "stateMutability": "payable",
      "type": "function"
    },
    {
      "stateMutability": "payable",
      "type": "receive"
    }
  ],
  "transactionHash": "0xa9c5b35c814088755fded3aa8d5eafc9d33154024eba93592321a0ab7186f33f",
  "args": [
    "0x5FbDB2315678afecb367f032d93F642f64180aa3"
  ],
  "numDeployments": 1,
  "solcInputHash": "017a31455886be3a92f5cd3580a45be0",
  "bytecode": "0x60c06040523480156200001157600080fd5b50604051620010fc380380620010fc833981810160405281019062000037919062000116565b3373ffffffffffffffffffffffffffffffffffffffff1660808173ffffffffffffffffffffffffffffffffffffffff1660601b815250508073ffffffffffffffffffffffffffffffffffffffff1660a08173ffffffffffffffffffffffffffffffffffffffff1660601b815250505062000148565b600080fd5b600073ffffffffffffffffffffffffffffffffffffffff82169050919050565b6000620000de82620000b1565b9050919050565b620000f081620000d1565b8114620000fc57600080fd5b50565b6000815190506200011081620000e5565b92915050565b6000602082840312156200012f576200012e620000ac565b5b60006200013f84828501620000ff565b91505092915050565b60805160601c60a05160601c610f7362000189600039600081816101e201528181610305015261060d0152600081816103a801526106310152610f736000f3fe60806040526004361061007f5760003560e01c8063957b89561161004e578063957b895614610135578063b60d428814610160578063dba6335f1461016a578063dc0d3dff146101955761008e565b80630d8e6e2c146100985780633ccfd60b146100c35780633e47d6f3146100cd5780636b69a5921461010a5761008e565b3661008e5761008c6101d2565b005b6100966101d2565b005b3480156100a457600080fd5b506100ad610301565b6040516100ba9190610834565b60405180910390f35b6100cb6103a6565b005b3480156100d957600080fd5b506100f460048036038101906100ef91906108b2565b6105e6565b6040516101019190610834565b60405180910390f35b34801561011657600080fd5b5061011f6105fe565b60405161012c9190610834565b60405180910390f35b34801561014157600080fd5b5061014a61060b565b604051610157919061093e565b60405180910390f35b6101686101d2565b005b34801561017657600080fd5b5061017f61062f565b60405161018c9190610968565b60405180910390f35b3480156101a157600080fd5b506101bc60048036038101906101b791906109af565b610653565b6040516101c99190610968565b60405180910390f35b6802b5e3af16b1880000610206347f0000000000000000000000000000000000000000000000000000000000000000610692565b1015610247576040517f08c379a000000000000000000000000000000000000000000000000000000000815260040161023e90610a39565b60405180910390fd5b346000803373ffffffffffffffffffffffffffffffffffffffff1673ffffffffffffffffffffffffffffffffffffffff16815260200190815260200160002060008282546102959190610a88565b925050819055506001339080600181540180825580915050600190039060005260206000200160009091909190916101000a81548173ffffffffffffffffffffffffffffffffffffffff021916908373ffffffffffffffffffffffffffffffffffffffff160217905550565b60007f000000000000000000000000000000000000000000000000000000000000000073ffffffffffffffffffffffffffffffffffffffff166354fd4d506040518163ffffffff1660e01b815260040160206040518083038186803b15801561036957600080fd5b505afa15801561037d573d6000803e3d6000fd5b505050506040513d601f19601f820116820180604052508101906103a19190610af3565b905090565b7f000000000000000000000000000000000000000000000000000000000000000073ffffffffffffffffffffffffffffffffffffffff163373ffffffffffffffffffffffffffffffffffffffff161461042b576040517f30cd747100000000000000000000000000000000000000000000000000000000815260040160405180910390fd5b60005b6001805490508110156104d65760006001828154811061045157610450610b20565b5b9060005260206000200160009054906101000a900473ffffffffffffffffffffffffffffffffffffffff16905060008060008373ffffffffffffffffffffffffffffffffffffffff1673ffffffffffffffffffffffffffffffffffffffff168152602001908152602001600020819055505080806104ce90610b4f565b91505061042e565b50600067ffffffffffffffff8111156104f2576104f1610b98565b5b6040519080825280602002602001820160405280156105205781602001602082028036833780820191505090505b5060019080519060200190610536929190610774565b5060003373ffffffffffffffffffffffffffffffffffffffff164760405161055d90610bf8565b60006040518083038185875af1925050503d806000811461059a576040519150601f19603f3d011682016040523d82523d6000602084013e61059f565b606091505b50509050806105e3576040517f08c379a00000000000000000000000000000000000000000000000000000000081526004016105da90610c59565b60405180910390fd5b50565b60006020528060005260406000206000915090505481565b6802b5e3af16b188000081565b7f000000000000000000000000000000000000000000000000000000000000000081565b7f000000000000000000000000000000000000000000000000000000000000000081565b6001818154811061066357600080fd5b906000526020600020016000915054906101000a900473ffffffffffffffffffffffffffffffffffffffff1681565b60008061069e836106ce565b90506000670de0b6b3a764000085836106b79190610c79565b6106c19190610d02565b9050809250505092915050565b60008082905060008173ffffffffffffffffffffffffffffffffffffffff1663feaf968c6040518163ffffffff1660e01b815260040160a06040518083038186803b15801561071c57600080fd5b505afa158015610730573d6000803e3d6000fd5b505050506040513d601f19601f820116820180604052508101906107549190610dab565b5050509150506402540be4008161076b9190610e26565b92505050919050565b8280548282559060005260206000209081019282156107ed579160200282015b828111156107ec5782518260006101000a81548173ffffffffffffffffffffffffffffffffffffffff021916908373ffffffffffffffffffffffffffffffffffffffff16021790555091602001919060010190610794565b5b5090506107fa91906107fe565b5090565b5b808211156108175760008160009055506001016107ff565b5090565b6000819050919050565b61082e8161081b565b82525050565b60006020820190506108496000830184610825565b92915050565b600080fd5b600073ffffffffffffffffffffffffffffffffffffffff82169050919050565b600061087f82610854565b9050919050565b61088f81610874565b811461089a57600080fd5b50565b6000813590506108ac81610886565b92915050565b6000602082840312156108c8576108c761084f565b5b60006108d68482850161089d565b91505092915050565b6000819050919050565b60006109046108ff6108fa84610854565b6108df565b610854565b9050919050565b6000610916826108e9565b9050919050565b60006109288261090b565b9050919050565b6109388161091d565b82525050565b6000602082019050610953600083018461092f565b92915050565b61096281610874565b82525050565b600060208201905061097d6000830184610959565b92915050565b61098c8161081b565b811461099757600080fd5b50565b6000813590506109a981610983565b92915050565b6000602082840312156109c5576109c461084f565b5b60006109d38482850161099a565b91505092915050565b600082825260208201905092915050565b7f596f75206e65656420746f207370656e64206d6f726520455448210000000000600082015250565b6000610a23601b836109dc565b9150610a2e826109ed565b602082019050919050565b60006020820190508181036000830152610a5281610a16565b9050919050565b7f4e487b7100000000000000000000000000000000000000000000000000000000600052601160045260246000fd5b6000610a938261081b565b9150610a9e8361081b565b9250827fffffffffffffffffffffffffffffffffffffffffffffffffffffffffffffffff03821115610ad357610ad2610a59565b5b828201905092915050565b600081519050610aed81610983565b92915050565b600060208284031215610b0957610b0861084f565b5b6000610b1784828501610ade565b91505092915050565b7f4e487b7100000000000000000000000000000000000000000000000000000000600052603260045260246000fd5b6000610b5a8261081b565b91507fffffffffffffffffffffffffffffffffffffffffffffffffffffffffffffffff821415610b8d57610b8c610a59565b5b600182019050919050565b7f4e487b7100000000000000000000000000000000000000000000000000000000600052604160045260246000fd5b600081905092915050565b50565b6000610be2600083610bc7565b9150610bed82610bd2565b600082019050919050565b6000610c0382610bd5565b9150819050919050565b7f43616c6c206661696c6564000000000000000000000000000000000000000000600082015250565b6000610c43600b836109dc565b9150610c4e82610c0d565b602082019050919050565b60006020820190508181036000830152610c7281610c36565b9050919050565b6000610c848261081b565b9150610c8f8361081b565b9250817fffffffffffffffffffffffffffffffffffffffffffffffffffffffffffffffff0483118215151615610cc857610cc7610a59565b5b828202905092915050565b7f4e487b7100000000000000000000000000000000000000000000000000000000600052601260045260246000fd5b6000610d0d8261081b565b9150610d188361081b565b925082610d2857610d27610cd3565b5b828204905092915050565b600069ffffffffffffffffffff82169050919050565b610d5281610d33565b8114610d5d57600080fd5b50565b600081519050610d6f81610d49565b92915050565b6000819050919050565b610d8881610d75565b8114610d9357600080fd5b50565b600081519050610da581610d7f565b92915050565b600080600080600060a08688031215610dc757610dc661084f565b5b6000610dd588828901610d60565b9550506020610de688828901610d96565b9450506040610df788828901610ade565b9350506060610e0888828901610ade565b9250506080610e1988828901610d60565b9150509295509295909350565b6000610e3182610d75565b9150610e3c83610d75565b9250827f7fffffffffffffffffffffffffffffffffffffffffffffffffffffffffffffff0482116000841360008413161615610e7b57610e7a610a59565b5b817f80000000000000000000000000000000000000000000000000000000000000000583126000841260008413161615610eb857610eb7610a59565b5b827f80000000000000000000000000000000000000000000000000000000000000000582126000841360008412161615610ef557610ef4610a59565b5b827f7fffffffffffffffffffffffffffffffffffffffffffffffffffffffffffffff0582126000841260008412161615610f3257610f31610a59565b5b82820290509291505056fea2646970667358221220217d24af58087dba5231a93293b2035b94c830b23be1e6c5d8338c4dd940a2be64736f6c63430008080033",
  "devdoc": {
    "kind": "dev",
    "methods": {},
    "version": 1
  },
  "userdoc": {
    "kind": "user",
    "methods": {},
    "version": 1
  },
  "storageLayout": {
    "storage": [
      {
        "astId": 55,
        "contract": "contracts/FundMe.sol:FundMe",
        "label": "addressToAmountFunded",
        "offset": 0,
        "slot": "0",
        "type": "t_mapping(t_address,t_uint256)"
      },
      {
        "astId": 58,
        "contract": "contracts/FundMe.sol:FundMe",
        "label": "funders",
        "offset": 0,
        "slot": "1",
        "type": "t_array(t_address)dyn_storage"
      }
    ],
    "types": {
      "t_address": {
        "encoding": "inplace",
        "label": "address",
        "numberOfBytes": "20"
      },
      "t_array(t_address)dyn_storage": {
        "base": "t_address",
        "encoding": "dynamic_array",
        "label": "address[]",
        "numberOfBytes": "32"
      },
      "t_mapping(t_address,t_uint256)": {
        "encoding": "mapping",
        "key": "t_address",
        "label": "mapping(address => uint256)",
        "numberOfBytes": "32",
        "value": "t_uint256"
      },
      "t_uint256": {
        "encoding": "inplace",
        "label": "uint256",
        "numberOfBytes": "32"
      }
    }
  }
}